:02000004080AE8
:1000000000000A08182B0A08000006000600050177
:0800100004027E05000000005F
:040018005C270A084F
:10001C0009480A4908B5884205D0094A824202D0EB
:10002C00121A02F047FB0748074A0021121A02F085
:10003C004CFB064808BD00BF00000020842A0A08BB
:10004C006C0000206C000020200600202006002000
:10005C0070B502F0FBF8074B074C1E46E41AA408D7
:10006C000025A54204D056F8253098470135F8E70D
:10007C0070BD00BF482A0A08802A0A0800F0E8B8B8
:10008C0008B500F0B8F8BDE8084002F0A1B801F0DE
:10009C0045BC01F04BBC0078B0FA80F040097047C9
:1000AC00012303707047012A02D0022A02D004E017
:1000BC00016002E00B6800B103600020704730B5AE
:1000CC00154689B004680968684601F039FE29684C
:1000DC0004A801F035FE04A96846A04704A801F065
:1000EC00E8FD684601F0E5FD09B030BD37B50D46B9
:1000FC001A49284601F062FE28B91949284601F030
:10010C005DFE80B91EE000240022A1B20092DC2327
:10011C00144801F021FA01341049134801F03DFE56
:10012C000C2CF1D1E9E700240023A1B20093DC22CE
:10013C000C4801F011FA013409490B4801F02DFE6D
:10014C000C2CF1D1094B1B782BB9064803B0BDE838
:10015C00304000F047B903B030BD00BF70270A082B
:10016C0076270A0880000020700000200000002084
:10017C0010B50C4688B01549204601F01FFEA0B101
:10018C00134B0022134968461A7001F0D9FD12492D
:10019C0004A801F0F7FD04A96846FFF7A7FF04A81F
:1001AC0001F087FD684601F084FD0C49204601F002
:1001BC0005FE40B10A4801F024FA094800F012F992
:1001CC00034B01221A7008B010BD00BF7A270A0831
:1001DC000000002083270A08700000208A270A08E4
:1001EC008000002010B58368044613B10322014639
:1001FC009847204610BD704738B5002383608B6844
:10020C0004460D462BB102229847EB68E360AB68BD
:10021C00A360204638BD000073B58B6805460C46BC
:10022C000BB9002010E01020FFF731FF0646002824
:10023C00F7D02146FFF7E0FF0023019300933246ED
:10024C000249284601F00AFB02B070BD69190A0880
:10025C0030B5184C89B0204600F08EF820460521A8
:10026C0001F0A9F9144D154B154C694604A80093DF
:10027C0003950294FFF7C0FF04A91248FFF7CCFFC7
:10028C0004A8FFF7AFFF6846FFF7ACFF0E4B6946BB
:10029C0004A8009303950294FFF7AEFF04A90B4842
:1002AC00FFF7BAFF04A8FFF79DFF6846FFF79AFF18
:1002BC0009B030BD80000020CB000A08F9000A0804
:1002CC00B3000A0894270A087D010A089D270A082A
:1002DC0038B50D4C01F0C4F90C4D022305220C214C
:1002EC00204600F06EF82046094C2A46094902F0D7
:1002FC0081F80949204601F023FD2A462046BDE835
:10030C003840064902F076B8800000206C000020CE
:10031C007000002031030A08A6280A08BF1C0A082E
:10032C0001F08EB910B50446C06808B101F0FEFAB0
:10033C0023781BB10021E07901F0D8FF204610BDD5
:10034C0038B50446C0680D4608B101F0EFFAA37940
:10035C00062B0CBF04200320684380B2A08001F060
:10036C00DDFAE06028B1A288002102F0AEF96580C8
:10037C0038BDA080608038BD10B504460121C0791D
:10038C0001F0B4FF0021E07901F0C1FF01232370DB
:10039C0010BD38B5037805460C461BB10021C07959
:1003AC0001F0A4FF2B78EC7153B1A4B220460121CB
:1003BC0001F09CFF2046BDE83840002101F0A7BFAA
:1003CC0038BD70B50446164600258371057005725C
:1003DC00C5600561FFF7B4FF20463146FFF7D9FF32
:1003EC00204670BDC368002B00F08E852DE9F041CE
:1003FC000446837986B0023BDBB2042B96BF294AB4
:10040C00322552F82350FFF78BFF2369C01AA842FC
:10041C00F9D372B6A179A3880229ADF80A30D4F8C1
:10042C000CE000F07282072900F06F82062900F0C0
:10043C003284052900F0AB83082900F0A883002939
:10044C0040F06385184A4FF40006BDF80A309BB2A1
:10045C00002B00F095830496BDF80A300EF10305CD
:10046C00033B9BB2ADF80A309EF80030DBB28DF83E
:10047C0007309EF80130DBB28DF806309EF8023062
:10048C00DBB28DF808309DF807709DF806309DF8AA
:10049C0008001B0243EA0743034303938DF805103E
:1004AC001BE100BFAC270A0894000020004600BFE7
:1004BC0000BF00BF00BF00BF00BF00BF00BF00BF38
:1004CC0000BF00BF00BF00BF00BF00BF00BF00BF28
:1004DC0000BF00BF00BF00BF00BF00BF00BF00BF18
:1004EC0000BF00BF00BF00BF00BF00BF00BF00BF08
:1004FC0000BF00BF00BF00BF00BF00BF00BF00BFF8
:10050C0000BF00BF00BF00BF00BF00BF00BF00BFE7
:10051C0000BF00BF00BF00BF00BF00BF00BF00BFD7
:10052C0000BF00BF00BF00BF00BF00BF00BF00BFC7
:10053C0000BF00BF00BF00BF00BF00BF00BF00BFB7
:10054C0000BF00BF00BF00BF00BF00BF00BF00BFA7
:10055C0000BF00BF00BF00BF00BF00BF00BF00BF97
:10056C0000BF00BF00BF00BF00BF00BF00BF00BF87
:10057C0000BF00BF00BF00BF00BF00BF00BF00BF77
:10058C0000BF00BF00BF00BF00BF00BF00BF00BF67
:10059C0000BF00BF00BF00BF00BF00BF00BF00BF57
:1005AC0000BF00BF00BF00BF00BF00BF00BF00BF47
:1005BC0000BF00BFE3791068C3EBC30300EB8307F4
:1005CC00BF8850F823305F83004600BF00BF00BFD8
:1005DC0000BF00BF00BF00BF00BF00BF00BF00BF17
:1005EC0000BF00BF00BF00BF00BF00BF00BF00BF07
:1005FC0000BF00BF00BF00BF00BF00BF00BF00BFF7
:10060C0000BF00BF00BF00BF00BF00BF00BF00BFE6
:10061C0000BF00BF00BF00BF00BF00BF00BF00BFD6
:10062C0000BF00BF00BF00BF00BF00BF00BF00BFC6
:10063C0000BF00BF00BF00BF00BF00BF00BF00BFB6
:10064C0000BF00BF00BF00BF00BF00BF00BF00BFA6
:10065C0000BF00BF00BF00BF00BF00BF00BF00BF96
:10066C0000BF00BF00BF00BF00BF00BF00BF00BF86
:10067C0000BF00BF00BF00BF00BF00BF00BF00BF76
:10068C0000BF00BF00BF00BF00BF00BF00BF00BF66
:10069C0000BF00BF00BF00BF00BF00BF00BF00BF56
:1006AC0000BF00BF00BF00BF00BF00BF00BF00BF46
:1006BC0000BF00BF00BF00BF00BF00BF00BF00BF36
:1006CC0000BF049B5B0804939DF805300133DBB23B
:1006DC00172B8DF8053000F2DB82E3791068C3EB41
:1006EC00C30300EB8307BF8850F823301F830398A4
:1006FC00049B18427FF4DAAE004600BF00BF00BF77
:10070C0000BF00BF00BF00BF00BF00BF00BF00BFE5
:10071C0000BF00BF00BF00BF00BF00BF00BF00BFD5
:10072C0000BF00BF00BF00BF00BF00BF00BF00BFC5
:10073C0000BF00BF00BF00BF00BF00BF00BF00BFB5
:10074C0000BF00BF00BF00BF00BFE3791068C3EB60
:10075C00C30300EB8307BF8850F823305F83004648
:10076C0000BF00BF00BF00BF00BF00BF00BF00BF85
:10077C0000BF00BF00BF00BF00BF00BF00BF00BF75
:10078C0000BF00BF00BF00BF00BF00BF00BF00BF65
:10079C0000BF00BF00BF00BF00BF00BF00BF00BF55
:1007AC0000BF00BF00BF00BF00BF00BF00BF00BF45
:1007BC0000BF00BF00BF00BF00BF00BF00BF00BF35
:1007CC0000BF00BF00BF00BF00BF00BF00BF00BF25
:1007DC0000BF00BF00BF00BF00BF00BF00BF00BF15
:1007EC0000BF00BF00BF00BF00BF00BF00BF00BF05
:1007FC0000BF00BF00BF00BF00BF00BF00BF00BFF5
:10080C0000BF00BF00BF00BF00BF00BF00BF00BFE4
:10081C0000BF00BF00BF00BF00BF00BF00BF00BFD4
:10082C0000BF00BF00BF00BF00BF00BF00BF00BFC4
:10083C0000BF00BF00BF00BF00BF00BF00BF00BFB4
:10084C0000BF00BF00BF00BF00BF00BF00BF00BFA4
:10085C0000BF00BF00BF00BF00BF00BF00BF00BF94
:10086C0000BF00BF00BF00BF00BF00BF00BF00BF84
:10087C0000BF00BF00BF00BF00BF00BF00BF00BF74
:10088C0000BF00BF00BF00BF00BF00BF00BF00BF64
:10089C0000BF00BF00BF00BF00BF00BF00BF00BF54
:1008AC0000BF00BF00BF00BF00BF00BF00BF00BF44
:1008BC0000BF00BF00BF00BF00BF00BF00BF00BF34
:1008CC0000BF00BF00BF00BF00BF00BF00BF00BF24
:1008DC0000BF00BF00BF00BF00BF00BF00BF00BF14
:1008EC0000BF00BF00BF00BF00BF00BF00BF00BF04
:1008FC0000BF00BF00BF00BF00BF00BF00BF00BFF4
:10090C0000BF00BF00BF00BFDBE6BDF80A30174ACE
:10091C009BB24FF400050026002B00F031810495AA
:10092C00BDF80A300EF10301033B9BB2ADF80A305F
:10093C009EF80030DBB28DF806309EF80130DBB249
:10094C008DF807309EF80230DBB28DF808309DF838
:10095C0006309DF807009DF80870000240EA03433A
:10096C003B4303938DF8056080E000BF94000020AA
:10097C00004600BF00BF00BF00BF00BF00BF00BFEC
:10098C0000BF00BF00BF00BF00BF00BF00BF00BF63
:10099C0000BF00BF00BF00BF00BF00BF00BF00BF53
:1009AC0000BF00BF00BF00BF00BF00BF00BF00BF43
:1009BC0000BF00BF00BF00BF00BF00BF00BF00BF33
:1009CC0000BF00BF00BF00BF00BF00BF00BF00BF23
:1009DC0000BF00BF00BF00BF00BF00BF00BF00BF13
:1009EC0000BF00BF00BF00BF00BF00BF00BF00BF03
:1009FC0000BF00BF00BF00BF00BF00BF00BF00BFF3
:100A0C0000BF00BF00BF00BF00BFE3791068C3EB9D
:100A1C00C30300EB8307BF8850F823305F83004685
:100A2C0000BF00BF00BF00BF00BF00BF00BF00BFC2
:100A3C0000BF00BF00BF00BF00BF00BF00BF00BFB2
:100A4C0000BF00BF00BF00BF00BF00BF00BF00BFA2
:100A5C0000BF00BF049B5B0804939DF80530013375
:100A6C00DBB2172B8DF8053000F28380E379106828
:100A7C00C3EBC30300EB8307BF8850F823301F83FD
:100A8C000398049B18427FF473AF004600BF00BF6D
:100A9C0000BF00BF00BF00BF00BF00BF00BF00BF52
:100AAC0000BF00BF00BF00BF00BF00BF00BF00BF42
:100ABC0000BFE3791068C3EBC30300EB8307BF8867
:100ACC0050F823305F83004600BF00BF00BF00BF5B
:100ADC0000BF00BF00BF00BF00BF00BF00BF00BF12
:100AEC0000BF00BF00BF00BF00BF00BF00BF00BF02
:100AFC0000BF00BF00BF00BF00BF00BF00BF00BFF2
:100B0C0000BF00BF00BF00BF00BF00BF00BF00BFE1
:100B1C0000BF00BF00BF00BF00BF00BF00BF00BFD1
:100B2C0000BF00BF00BF00BF00BF00BF00BF00BFC1
:100B3C0000BF00BF00BF00BF00BF00BF00BF00BFB1
:100B4C0000BF00BF00BF00BF00BF00BF00BF00BFA1
:100B5C0000BF00BF00BF00BF00BF00BF00BF00BF91
:100B6C0000BF00BF00BF00BF00BF00BF00BF00BF81
:100B7C0070E7BDF80A308E469BB2002B7FF4CFAEE7
:100B8C0062B6FFF7CDFB206106B0BDE8F0815E4B8D
:100B9C005E4A184611684FF400080027BDF80A2079
:100BAC0092B2002AECD0CDF81080BDF80A200EF1DC
:100BBC000305033A92B2ADF80A209EF80020D2B297
:100BCC008DF806209EF80120D2B28DF807209EF8F1
:100BDC000220D2B28DF808209DF806209DF807E07F
:100BEC009DF808C04FEA0E2E4EEA024242EA0C0271
:100BFC0003928DF80570E2795E68C2EBC20201EBDC
:100C0C00820EBEF804E051F822200596A2F818E0F6
:100C1C00039E049A164223D05A68059E921B4F2AB3
:100C2C00FAD9E279C2EBC20201EB820EBEF804E003
:100C3C0051F82220A2F81AE0426805925A68059EE3
:100C4C00921B072AFAD9049A520804929DF805209F
:100C5C000132D2B2172A8DF80520CCD9AE469DE7C9
:100C6C005A68059E921B182AFAD9E279C2EBC20285
:100C7C0001EB820EBEF804E051F82220A2F81AE033
:100C8C00426805925A68059E921B452AFAD9DAE702
:100C9C00AE46FFF7DABB1D4A4FF000450026BDF803
:100CAC000A309BB2002B3FF46BAF0495BDF80A30B1
:100CBC000EF10401043B9BB2ADF80A309EF80030F3
:100CCC00DBB28DF807309EF80130DBB28DF80630C0
:100CDC009EF80230DBB28DF808309EF80330DBB2A0
:100CEC008DF809309DF807309DF806709DF808E0E6
:100CFC003F049DF8090047EA0363034343EA0E23CC
:100D0C0003938DF805607EE0001000E09400002055
:100D1C00004600BF00BF00BF00BF00BF00BF00BF48
:100D2C0000BF00BF00BF00BF00BF00BF00BF00BFBF
:100D3C0000BF00BF00BF00BF00BF00BF00BF00BFAF
:100D4C0000BF00BF00BF00BF00BF00BF00BF00BF9F
:100D5C0000BF00BF00BF00BF00BF00BF00BF00BF8F
:100D6C0000BF00BF00BF00BF00BF00BF00BF00BF7F
:100D7C0000BF00BF00BF00BF00BF00BF00BFE379D2
:100D8C001068C3EBC30300EB8307BF8850F8233014
:100D9C005F83004600BF00BF00BF00BF00BF00BFA5
:100DAC0000BF00BF00BF00BF00BF00BF00BF00BF3F
:100DBC0000BF00BF00BF00BF00BF00BF00BF00BF2F
:100DCC0000BF00BF00BF00BF00BF00BF00BF00BF1F
:100DDC0000BF00BF00BF00BF00BF00BF00BF00BF0F
:100DEC0000BF00BF00BF00BF00BF00BF00BF00BFFF
:100DFC00049B5B0804939DF805300133DBB21F2B79
:100E0C008DF805307ED8E3791068C3EBC30300EB93
:100E1C008307BF8850F823301F830398049B184224
:100E2C007FF476AF004600BF00BF00BF00BF00BF1D
:100E3C0000BF00BF00BF00BF00BF00BF00BF00BFAE
:100E4C0000BF00BF00BF00BF00BF00BFE379106848
:100E5C00C3EBC30300EB8307BF8850F823305F83D9
:100E6C00004600BF00BF00BF00BF00BF00BF00BFF7
:100E7C0000BF00BF00BF00BF00BF00BF00BF00BF6E
:100E8C0000BF00BF00BF00BF00BF00BF00BF00BF5E
:100E9C0000BF00BF00BF00BF00BF00BF00BF00BF4E
:100EAC0000BF00BF00BF00BF00BF00BF00BF00BF3E
:100EBC0000BF00BF00BF00BF00BF00BF00BF00BF2E
:100ECC0000BF00BF00BF00BF00BF00BF00BF00BF1E
:100EDC0000BF00BF00BF00BF00BF00BF00BF00BF0E
:100EEC0000BF00BF00BF00BF00BF00BF00BF00BFFE
:100EFC0000BF00BF00BF00BF00BF00BF00BF00BFEE
:100F0C0000BF75E78E46CAE67047032900F02E81B4
:100F1C001E4A4FF400050026BDF80A309BB2002B88
:100F2C003FF42EAE0495BDF80A30E079033B9BB23A
:100F3C00ADF80A309EF800300EF10301DBB28DF8EB
:100F4C0007309EF80130C0EBC000DBB28DF80830E2
:100F5C009EF80230D2F800E0DBB28DF806309DF836
:100F6C0007709DF808300EEB800C1B0243EA074318
:100F7C009DF80670BCF804C05EF820003B43039358
:100F8C008DF80560A0F81AC07DE000BF9400002029
:100F9C00049B5B080493004600BF00BF00BF00BF6A
:100FAC0000BF00BF00BF00BF00BF00BF00BF00BF3D
:100FBC0000BF00BF00BF00BF00BF00BF00BF00BF2D
:100FCC0000BF00BF00BF00BF00BF00BF00BF00BF1D
:100FDC0000BF00BF00BF00BF00BF00BF00BF00BF0D
:100FEC0000BF00BF00BF00BF00BF00BF00BF00BFFD
:100FFC0000BF00BF00BF00BF00BF00BF00BF00BFED
:10100C0000BF00BF00BF00BF00BF00BF00BF00BFDC
:10101C0000BF00BF00BF00BF00BF00BFE079176872
:10102C009DF80530C0EBC00007EB800EBEF804E065
:10103C0057F820000133DBB28DF80530A0F818E02A
:10104C00004600BF00BF00BF00BF00BF00BF00BF15
:10105C0000BF00BF00BF00BF00BF00BF00BF00BF8C
:10106C0000BF00BF00BF00BF00BF9DF80530182BAC
:10107C007AD0E3791068C3EBC30300EB8307BF8816
:10108C0050F823305F830398049B184280D10046AC
:10109C0000BF00BF00BF00BF00BF00BF00BF00BF4C
:1010AC0000BF00BF00BF00BF00BF00BF00BF00BF3C
:1010BC00E3791068C3EBC30300EB8307BF8850F8D8
:1010CC0023301F839DF805300133DBB28DF80530DA
:1010DC00049B5B080493004600BF00BF00BF00BF29
:1010EC0000BF00BF00BF00BF00BF00BF00BF00BFFC
:1010FC0000BF00BF00BF00BF00BF00BF00BF00BFEC
:10110C0000BF00BF00BF00BF00BF00BF00BF00BFDB
:10111C0000BF00BF00BF00BF00BF00BF00BF00BFCB
:10112C0000BF00BF00BF00BF00BF00BF00BF00BFBB
:10113C0000BF00BF00BF00BF00BF00BF00BF00BFAB
:10114C0000BF00BF00BF00BF00BF00BF00BF00BF9B
:10115C0000BF00BF00BF00BF00BF00BF00BF00BF8B
:10116C009DF80530182B84D18E46D5E6174A4FF4DE
:10117C0000050026BDF80A309BB2002B3FF400ADF1
:10118C000495BDF80A300EF10301033B9BB2ADF898
:10119C000A309EF80030DBB28DF807309EF8013033
:1011AC00DBB28DF806309EF80230DBB28DF80830D9
:1011BC009DF807709DF806309DF808001B0243EA65
:1011CC000743034303938DF80560E0E0940000208F
:1011DC00004600BF00BF00BF00BF00BF00BF00BF84
:1011EC0000BF00BF00BF00BF00BF00BF00BF00BFFB
:1011FC0000BF00BF00BF00BF00BF00BF00BF00BFEB
:10120C0000BF00BF00BF00BF00BF00BF00BF00BFDA
:10121C0000BF00BF00BF00BF00BF00BF00BF00BFCA
:10122C0000BF00BF00BF00BF00BF00BF00BF00BFBA
:10123C0000BF00BF00BF00BF00BF00BF00BF00BFAA
:10124C0000BF00BF00BF00BF00BF00BF00BF00BF9A
:10125C0000BF00BF00BF00BF00BF00BF00BF00BF8A
:10126C0000BF00BF00BF00BF00BF00BF00BF00BF7A
:10127C0000BF00BF00BF00BF00BF00BF00BF00BF6A
:10128C0000BF00BF00BF00BF00BF00BF00BF00BF5A
:10129C0000BF00BF00BF00BF00BF00BF00BF00BF4A
:1012AC0000BF00BF00BF00BF00BF00BF00BF00BF3A
:1012BC0000BF00BF00BF00BF00BF00BF00BF00BF2A
:1012CC0000BF00BF00BF00BF00BF00BF00BF00BF1A
:1012DC0000BF00BF00BF00BF00BF00BF00BF00BF0A
:1012EC0000BF00BF00BF00BF00BF00BF00BF00BFFA
:1012FC0000BFE3791068C3EBC30300EB8307BF881F
:10130C0050F823305F83004600BF00BF00BF00BF12
:10131C0000BF00BF00BF00BF00BF00BF00BF00BFC9
:10132C0000BF00BF00BF00BF00BF00BF00BF00BFB9
:10133C0000BF00BF00BF00BF00BF00BF00BF00BFA9
:10134C0000BF00BF00BF00BF00BF00BF00BF00BF99
:10135C0000BF00BF00BF00BF00BF00BF00BF00BF89
:10136C0000BF00BF00BF00BF00BF00BF00BF00BF79
:10137C0000BF00BF00BF049B5B0804939DF80530C1
:10138C000133DBB2172B8DF8053000F2E380E379E3
:10139C001068C3EBC30300EB8307BF8850F82330FE
:1013AC001F830398049B18427FF412AF004600BFC2
:1013BC0000BF00BF00BF00BF00BF00BF00BF00BF29
:1013CC0000BF00BF00BF00BF00BF00BF00BF00BF19
:1013DC0000BF00BF00BF00BF00BF00BF00BF00BF09
:1013EC0000BF00BF00BF00BF00BF00BF00BF00BFF9
:1013FC0000BF00BF00BF00BF00BF00BF00BF00BFE9
:10140C0000BF00BF00BF00BF00BF00BF00BF00BFD8
:10141C0000BF00BF00BF00BF00BF00BF00BF00BFC8
:10142C0000BF00BF00BF00BF00BF00BF00BFE3791B
:10143C001068C3EBC30300EB8307BF8850F823305D
:10144C005F83004600BF00BF00BF00BF00BF00BFEE
:10145C0000BF00BF00BF00BF00BF00BF00BF00BF88
:10146C0000BF00BF00BF00BF00BF00BF00BF00BF78
:10147C0000BF00BF00BF00BF00BF00BF00BF00BF68
:10148C0000BF00BF00BF00BF00BF00BF00BF00BF58
:10149C0000BF00BF00BF00BF00BF00BF00BF00BF48
:1014AC0000BF00BF00BF00BF00BF00BF00BF00BF38
:1014BC0000BF00BF00BF00BF00BF00BF00BF00BF28
:1014CC0000BF00BF00BF00BF00BF00BF00BF00BF18
:1014DC0000BF00BF00BF00BF00BF00BF00BF00BF08
:1014EC0000BF00BF00BF00BF00BF00BF00BF00BFF8
:1014FC0000BF00BF00BF00BF00BF00BF00BF00BFE8
:10150C0000BF00BF00BF00BF00BF00BF00BF00BFD7
:10151C0000BF00BF00BF00BF00BF00BF00BF00BFC7
:10152C0000BF00BF00BF00BF00BF00BF00BF00BFB7
:10153C0000BF00BF00BF00BF00BF00BF00BF00BFA7
:10154C0000BF00BF00BF00BF00BF00BF00BF00BF97
:10155C0000BF10E78E460DE6F0B544889DF8145098
:10156C008C4227D9047A44B1624363436C43C2F37F
:10157C000722C3F30723C4F307258779C66801EB59
:10158C004101082F06EB010411D80120B84010F4DA
:10159C00D27F08D1C0060AD5FF2A08BFFE2272549A
:1015AC006570A370F0BD73546270A570F0BD725479
:1015BC006370A570F0BD4A1C037AD2B29A4270B522
:1015CC001ED0013B13F0FF03C4680CD0FF290FBFE2
:1015DC004FF6FF71110201F1FF3191FBF3F30CBFD8
:1015EC0091FBF3F39BB22546291B868889B28E4268
:1015FC0005D929785943091205F8011BF4E7027241
:10160C0070BD82880021C06801F05FB808B500F099
:10161C0027F800F025F8014B186008BD9400002055
:10162C0008B5024B1B681B6B019308BDD001060863
:10163C0008B5024B1B685B68019308BD9C0106084A
:10164C0008B5024B1B681B69019308BD9C01060879
:10165C0008B5024B1B685B69019308BD9C01060829
:10166C0008B5024B1B681B68019308BDB001060846
:10167C0008B5024B1B689B68019308BDB0010608B6
:10168C0008B5024B1B68DB68019308BDB001060866
:10169C0008B5024B1B681B69019308BDB001060815
:1016AC0008B5024B1B681B6E019308BDAC01060804
:1016BC0008B5024B1B685B6E019308BDAC010608B4
:1016CC0008B5024B1B689B6E019308BDAC01060864
:1016DC0008B5024B1B68DB6E019308BDAC01060814
:1016EC0008B5024B1B681B6F019308BDAC010608C3
:1016FC0008B5024B1B685B6F019308BDAC01060873
:10170C0008B5034B1B68D3F88030019308BD00006B
:10171C00AC01060808B5024B1B68DB69019308BDD8
:10172C00B401060808B5024B1B681B6A019308BD7F
:10173C00B401060808B5024B1B689B69019308BDF0
:10174C00C401060808B5024B1B685B6A019308BD0F
:10175C00C401060808B5024B1B689B6A019308BDBF
:10176C00C401060808B5024B1B68DB6A019308BD6F
:10177C00C401060808B5024B1B681B6B019308BD1E
:10178C00C401060808B5024B1B685B6B019308BDCE
:10179C00C401060808B5024B1B689B6B019308BD7E
:1017AC00C401060808B5024B1B681B6C019308BDED
:1017BC00C401060808B5024B1B681B68019308BDE1
:1017CC00D801060808B5024B1B681B69019308BDBC
:1017DC00D801060808B5024B1B685B69019308BD6C
:1017EC00D801060808B5024B1B689B69019308BD1C
:1017FC00D801060808B5024B1B68DB69019308BDCC
:10180C00D801060808B5024B1B681B6A019308BD7A
:10181C00D801060808B5024B1B689B6C019308BDE8
:10182C00C001060808B5024B1B685B68019308BD34
:10183C00A401060808B5034B1B68D3F8903001933C
:10184C0008BD0000A401060808B5034B1B68D3F8BB
:10185C009C30019308BD0000A401060808B5024B9A
:10186C001B685B6A019308BDCC01060808B5024BE6
:10187C001B68DB6B019308BDCC01060808B5024B55
:10188C001B685B68019308BDC801060808B5024BCC
:10189C001B689B68019308BDC801060808B5024B7C
:1018AC001B68DB68019308BDC801060808B5024B2C
:1018BC001B681B69019308BDC801060808B5024BDB
:1018CC001B685B69019308BDC801060808B5024B8B
:1018DC001B689B69019308BDC801060808B5024B3B
:1018EC001B68DB69019308BDC801060808B5024BEB
:1018FC001B681B6A019308BDC801060808B5024B9A
:10190C001B681B6B019308BDC801060808B5024B88
:10191C001B685B6B019308BDC801060808B5024B38
:10192C001B681B68019308BDA001060808B5024B93
:10193C001B685B68019308BDA001060808B5024B43
:10194C001B689B68019308BDA001060808B5024BF3
:10195C001B68DB6A019308BDA001060807B58DE87A
:10196C00060082680AB900F04CFDC36801AA6946FA
:10197C00984703B05DF804FB7047F8B5064615466A
:10198C000C468F18BC4206D0336814F8011B9B68B8
:10199C0030469847F6E72846F8BD0022007CFFF752
:1019AC007FBE0021007CFFF783BE0021007CFFF787
:1019BC0087BE0021007CFFF78BBE0021007CFFF767
:1019CC008FBE10B50446142100F019FD204610BD41
:1019DC0010B5044608464FF47A73A360044B0021FB
:1019EC00207461602360FFF78BFE204610BD00BFA2
:1019FC00C8270A080021007CFFF77ABE704710B593
:101A0C000446182100F0FBFC204610BDF8B50F462B
:101A1C0000F10806051D002416F8011D0A2238469F
:101A2C0000F011F9AE42044407D0002CF4D02E2162
:101A3C00384600F0DBF80444EEE72046F8BD000021
:101A4C0010B50446044B112240F8043B002100F071
:101A5C003CFE204610BD00BFF0270A080346074A8B
:101A6C0010B543F8042B01F1100251F8044B9142CC
:101A7C0043F8044BF9D10A781A7010BDF0270A0804
:101A8C00024A41600260042202757047F0270A087E
:101A9C0010B59DF8084044EA032343EA024242EAA7
:101AAC00016104234160037510BD000037B5044D7E
:101ABC0005609DF818500095FFF7EAFF03B030BDA4
:101ACC00F0270A08014A024B1A60704772280A086C
:101ADC009800002000231A464068FFF7CFBE002272
:101AEC0002214068FFF7DABE002211464068FFF77A
:101AFC00CDBE002211464068FFF7D8BE00231A461F
:101B0C0019464068FFF7DABE00231A4619464068AA
:101B1C00FFF7DCBE002281F001014068FFF7DEBE5A
:101B2C0000224068FFF7EABE002211464068FFF72A
:101B3C00EDBE002211464068FFF7D8BE70B51646C0
:101B4C008EB0044608A8FFF77BFF1122002103A8E2
:101B5C0000F0BBFD304600F0F3FD00250A4B00956C
:101B6C0081B25B6803AA3046FFF754FE20B12946C8
:101B7C002046FFF785FF03E003A92046FFF76EFF21
:101B8C0020460EB070BD00BF1C050020024B034A5E
:101B9C001A6000225A6070479C000020E8280A084E
:101BAC00F8B506460D468F180024BD420CD033689C
:101BBC0015F8011B9B6830469847002801DB04444C
:101BCC00F3E7002C08BF04462046F8BD70B5054667
:101BDC000C46084649B100F0B3FD2B68024621467D
:101BEC002846BDE87040DB68184770BD03689B68E9
:101BFC001847012A98BF0A2230B50B468BB000213A
:101C0C008DF824100DF12304B3FBF2F505FB123310
:101C1C00DBB2092B94BF30333733DBB2214604F8E7
:101C2C0001392B46002DEFD1FFF7D0FF0BB030BDA3
:101C3C0010B422B90368C9B29B6810BC1847D2B261
:101C4C0010BCFFF7D6BFFFF7F3BF10B50446FEF785
:101C5C00C9FA204610BD0000034800238360034AE4
:101C6C00034900F0C7BB00BFA40000206C0000209B
:101C7C00571C0A08704710B50446102100F0BFFB32
:101C8C00204610BD70B504460E46074B0025036078
:101C9C0040F80C5FFFF7C4FC30462671FFF73AFDA5
:101CAC00A560204670BD00BF1C290A080079FFF70B
:101CBC0039BD10B504460068FFF738FE204610BD4C
:101CCC0010B50446006808B1FFF730FE002323600E
:101CDC00A360636010BD38B504460D460068013141
:101CEC00FFF72CFE10B184E82100012038BD10B59F
:101CFC000368044613B143688B4207D22046FFF7B2
:101D0C00EAFF20B1A3680BB922681370012010BD43
:101D1C0070B50E46114604461546FFF7E8FF18B994
:101D2C002046FFF7CDFF09E02A463146A560206822
:101D3C0000F0C0FC2268A3680021D154204670BD7D
:101D4C0038B50023044603604360836003730D467B
:101D5C0039B1084600F0F4FC294602462046FFF74C
:101D6C00D7FF204638BD884210B50B46044607D035
:101D7C00096819B19A68FFF7CBFF01E0FFF7A0FFE4
:101D8C00204610BD10B504460023036043608360F9
:101D9C000373FFF7E8FF204610BD38B505460C4627
:101DAC0041B1084600F0CCFC214602462846FFF71C
:101DBC00AFFF01E0FFF784FF284638BD08B5826805
:101DCC000B4612B919B9012008BD11B9036818786E
:101DDC0002E0006800F0AAFCB0FA80F0400908BDEF
:101DEC004FF6FF72034B0020187058809A80FFF753
:101DFC0019BD00BFB4000020024B1A68024B1A60D8
:101E0C00704700BF04000020BC00002070474174E4
:101E1C00704708B5007CFFF7C5FC20EAE07008BDF0
:101E2C0008B5007CFFF796FC20EAE07008BD08B509
:101E3C00007CFFF79FFC30EA200028BF4FF0FF30FA
:101E4C0008BD08B5007CFFF78DFC30EA200028BFE8
:101E5C004FF0FF3008BD007CFFF794BC10B5044672
:101E6C00142100F0CCFA204610BD70B5457C044618
:101E7C000E4625B9007CFFF795FC002805DD3146A0
:101E8C00207CBDE87040FFF75DBC284670BD0000AB
:101E9C0010B5044608461146002262604FF47A726F
:101EAC00A260054A20742260012262741A46FFF770
:101EBC0041FC204610BD00BF58290A08007CFFF7E2
:101ECC0069BC000038B50C4D296811F0010411D122
:101EDC002846FEF7E0F868B1084A2146084B094845
:101EEC00FFF7D6FF2846FEF7DBF8074A07490548F7
:101EFC0000F080FA034838BD580100205C01002036
:101F0C00D4000020C00000206C000020191E0A081C
:101F1C0041747047704708B50021007CFFF762FCE4
:101F2C0030EA200028BF4FF0FF3008BD08B5012172
:101F3C00007CFFF757FC30EA200028BF4FF0FF3041
:101F4C0008BD08B5007CFFF745FC20EAE07008BD31
:101F5C0008B5007CFFF736FC20EAE07008BD007C79
:101F6C00FFF750BC10B50446142100F048FA204687
:101F7C0010BD38B50446007C0D46FFF72BFC00283D
:101F8C0001DC607C28B12946207CFFF733FC20EA79
:101F9C00E07038BD10B50446002363604FF47A73CB
:101FAC00A360054B0846236001232174637411461A
:101FBC00FFF700FC204610BD88290A0810B504461E
:101FCC001422002100F081FB054B20466360054B79
:101FDC00E36040F2011323818123238210BD00BFF3
:101FEC0065020020E401002030B50E4D87B001A839
:101FFC00FFF7E4FF296811F0010410D12846FEF721
:10200C004AF860B101AA21460748FFF7C3FF2846EA
:10201C00FEF746F8054A0649034800F0EBF902487A
:10202C0007B030BDE0010020680300206C000020E8
:10203C00211F0A0810B504461422002100F045FBAC
:10204C00054B20466360054BE36040F2011323818E
:10205C008123238210BD00BF1804002080030020C0
:10206C0010B50E4C86B001A8FFF7E4FF2368DB0720
:10207C0010D42046FEF70FF860B101AA01210848E0
:10208C00FFF788FF2046FEF70BF8064A064904487E
:10209C0000F0B0F9024806B010BD00BF7C03002070
:1020AC00040400206C000020211F0A0800221146A5
:1020BC004068FFF7FBBBF0B5164689B011220F46FE
:1020CC000446002103A800F000FB304600F038FB6A
:1020DC000025009581B27B6803AA3046FFF79AFB76
:1020EC0020B129462046FFF7CBFC03E003A920468C
:1020FC00FFF7B4FC204609B0F0BD00221146406841
:10210C00FFF7F4BB002211464068FFF7FFBB00222B
:10211C004068FFF7F3BB002281F001014068FFF734
:10212C00DDBB00231A4619464068FFF7CFBB0023DE
:10213C001A4619464068FFF7C1BB00221146406899
:10214C00FFF7A4BB002202214068FFF7A7BB0023C6
:10215C001A464068FFF792BB024B04225A60024AAF
:10216C001A6070471C050020B8290A0808B5144BE2
:10217C0033B1FFF739FF03681B699847002816DC59
:10218C00104B33B1FFF79EFE03681B69984700287C
:10219C0010DC0D4B0BB1AFF300800C4B7BB1FFF798
:1021AC005FFF03681B699847002806DC08BDAFF386
:1021BC000080E5E7AFF30080EBE7AFF3008008BDEC
:1021CC000000000000000000000000000000000003
:1021DC0008B5FFF7CBFFFFF73BFA014B186008BDC2
:1021EC002C0500200248034A0349121A00F062BA77
:1021FC000040024004400240802A0A0807B5002330
:10220C0000931A466FF07701FFF71EFB03B05DF8E1
:10221C0004FB000007B543880A2B08D0502B09D1CA
:10222C00094B1B683BB103B05DF804EB1847FFF793
:10223C00E5FF06E0002300931A466FF07701FFF7E5
:10224C0003FB03B05DF804FB2405002038B5104CEB
:10225C00104D2368AB42104B0CBF012200221A70A8
:10226C0002D0FFF7BFFF2560FFF7E2F9044600F04C
:10227C0035FA0A4B13B12046AFF300800021074812
:10228C00FFF7F4FABDE8384000210548FFF7D2BA51
:10229C00004002401E1C279A280500200000000068
:1022AC0021220A0810B504460F48FFF7FFFC28B19D
:1022BC00A4F10D03022B01D8002010BD00F040F852
:1022CC00FFF798FB08B1012CF6D9FFF7FBFDFFF7E0
:1022DC00F5FD18B1A4F11203012BEDD9172C8CBF0D
:1022EC000020012010BD00BF60050020172838B564
:1022FC0004460D460AD8FF2908D0FFF7D3FF28B1B2
:10230C0029462046BDE83840FFF7B2B938BD38B58C
:10231C0004460D46FFF7B4F9FF2810D0062804D860
:10232C004D2323FA00F0C30709D42046FFF7BAFF68
:10233C0028B129462046BDE83840FFF7A9B938BD79
:10234C0038B50B4D296811F001040FD12846FDF763
:10235C00A2FE58B121460748FFF73AFB2846FDF785
:10236C009FFE054A0549034800F044F8014838BD72
:10237C0030050020340500206C00002085190A0867
:10238C0013B5084C00231A46194600932046FFF754
:10239C008DFB2046044A054902B0BDE8104000F010
:1023AC0029B800BF480500206C000020091A0A0853
:1023BC0070B50C4C0C4E0D4D00212046FFF762FC05
:1023CC0020460B4C3246294600F014F801212046D9
:1023DC00FFF758FC324629462046BDE8704000F015
:1023EC0009B800BF600500206C000020811C0A08A1
:1023FC00700500200B460146184600F04DB9FDF75C
:10240C0048BE08B5FFF7A2FA244B1A68D0075CBF88
:10241C0001221A60224B1A68D1075CBF01221A6094
:10242C00204B1A68D2075CBF01221A601E4B1A6837
:10243C00D0075CBF01221A601C4B1A68D1075CBF25
:10244C0001221A601A4B1A68D2075CBF01221A606B
:10245C00184B1A68D0075CBF01221A60164B1A6819
:10246C00D1075CBF01221A60144B1A68D2075CBFFB
:10247C0001221A60124B1A68D0075CBF01221A6045
:10248C00104B1A68D1075CBF01221A600E4B1A68F8
:10249C00D2075CBF01221A60704700BFAC05002058
:1024AC00A8050020A4050020A00500209C05002004
:1024BC009805002094050020900500208C05002034
:1024CC00880500208405002080050020184B1A6820
:1024DC00D1075CBF01221A60164B1A68D2075CBF89
:1024EC0001221A60144B1A68D0075CBF01221A60D3
:1024FC00124B1A68D1075CBF01221A60104B1A6884
:10250C00D2075CBF01221A600E4B1A68D0075CBF61
:10251C0001221A600C4B1A68D1075CBF01221A60A9
:10252C000A4B1A68D2075CBF01221A60704700BFC1
:10253C00CC050020C8050020C4050020C0050020E3
:10254C00BC050020B8050020B4050020B005002013
:10255C00184B1A68D1075CBF01221A60164B1A6817
:10256C00D2075CBF01221A60144B1A68D0075CBFFB
:10257C0001221A60124B1A68D1075CBF01221A6043
:10258C00104B1A68D2075CBF01221A600E4B1A68F6
:10259C00D0075CBF01221A600C4B1A68D1075CBFD4
:1025AC0001221A600A4B1A68D2075CBF01221A601A
:1025BC00704700BFEC050020E8050020E405002072
:1025CC00E0050020DC050020D8050020D405002003
:1025DC00D0050020244B1A68D0075CBF01221A607A
:1025EC00224B1A68D1075CBF01221A60204B1A6873
:1025FC00D2075CBF01221A601E4B1A68D0075CBF61
:10260C0001221A601C4B1A68D1075CBF01221A60A8
:10261C001A4B1A68D2075CBF01221A60184B1A6851
:10262C00D0075CBF01221A60164B1A68D1075CBF39
:10263C0001221A60144B1A68D2075CBF01221A607F
:10264C00124B1A68D0075CBF01221A60104B1A6833
:10265C00D1075CBF01221A600E4B1A68D2075CBF0F
:10266C0001221A60704700BF1C06002018060020CB
:10267C0014060020100600200C060020080600207E
:10268C000406002000060020FC050020F8050020B0
:10269C00F4050020F005002010B5054C13462CB1B4
:1026AC000A4601460220AFF3008010BD204610BD43
:1026BC000000000010B5431E0A44914204D011F8EA
:1026CC00014B03F8014FF8E710BD03460244934257
:1026DC0002D003F8011BFAE77047000038B5124B23
:1026EC0005461C68A36BD3B91820FFF717F943F202
:1026FC000E33A06303804AF6CD33438041F234237A
:10270C0083804EF26D63C3804DF6EC630381052329
:10271C0043810B23838101220023C0E90423A36B93
:10272C0000221D615A6138BD6800002010F8012B91
:10273C0011F8013B012A28BF9A42F7D0D01A7047F2
:10274C00034613F8012B002AFBD1181A01387047E5
:10275C001D000A085D000A0889000A088D000A0895
:10276C0000000000677265656E00726564004D6163
:10277C00737465724F6E0063616C6C4974004D61CB
:10278C00737465724F6666004C6564436F6C6F7250
:10279C00004D6173746572506F77657200000000B4
:1027AC002C01000018000000F40100002C010000B6
:1027BC0050000000000000000000000085190A080D
:1027CC00CF190A08A7190A0887190A08AF190A08A5
:1027DC00B7190A08BF190A08C7190A08000000002F
:1027EC0000000000191A0A08091A0A080B1A0A082C
:1027FC00626175640053657269616C005553425394
:10280C00657269616C310074797065007061726118
:10281C006D00636D6400696400686E6400737472AB
:10282C006D0066696C74006C766C00616464486160
:10283C006E646C65720072656D6F766548616E646E
:10284C006C657200656E756D48616E646C65727353
:10285C00004A534F4E53747265616D4C6F674861FB
:10286C006E646C65720061707000253031307520BB
:10287C00005D20002564002C200028293A2000202F
:10288C005B00636F6465203D2000256900646574FE
:10289C0061696C73203D20000D0A006C6E00666E41
:1028AC0000636F64650064657461696C006E6F6EC3
:1028BC006500747261636500696E666F00776172A2
:1028CC006E006572726F720070616E696300616C8C
:1028DC006C0000000000000000000000E11A0A0873
:1028EC00EB1A0A08F51A0A08FF1A0A08091B0A0843
:1028FC00151B0A08211B0A082D1B0A08351B0A0880
:10290C003F1B0A08491B0A080000000000000000D9
:10291C00811C0A08831C0A085A00252B3033643AA0
:10292C00253032750025592D256D2D2564542548EB
:10293C003A254D3A2553257A0061736374696D65A8
:10294C00000000000000000000000000191E0A0832
:10295C00691E0A08771E0A08AD1B0A082D1E0A08F4
:10296C004F1E0A083B1E0A08631E0A081B1E0A0893
:10297C001F1E0A080000000000000000211F0A08AA
:10298C00711F0A087F1F0A08AD1B0A085D1F0A0881
:10299C00231F0A08391F0A086B1F0A084F1F0A0851
:1029AC001D1F0A0800000000000000005B210A083F
:1029BC0051210A0847210A08B9200A083B210A08B4
:1029CC002F210A0823210A081B210A0811210A08B1
:1029DC0007210A08C3200A080000000000000000BC
:1029EC0000000000000000000000000000000000DB
:1029FC0000000000000000000000000000000000CB
:102A0C0000000000000000000000000000000000BA
:102A1C0000000000000000000000000000000000AA
:102A2C00000000000000000000000000000000009A
:102A3C00000000000000000043000000DD020A0856
:102A4C0019160A08D11A0A08991B0A08651C0A08E3
:102A5C00ED1D0A08051E0A0865210A088D230A08BF
:102A6C00BD230A0815240A08D9240A085D250A087A
:042A7C00E1250A083E
:042A80000000000052
:102A84000100000045290A0800000000E4290A08A2
:102A9400042A0A08242A0A08000000000000000092
:102AA4000000000000000000442A0A0800000000A2
:102AB4000000000000000000000000000000000012
:102AC4000000000000000000000000000000000002
:102AD40000000000000000000000000000000000F2
:0C2AE400000000000000000008000020BE
:102AF000FFFFFFFF00000102030405060708090AA3
:102B00000B0C0D0E0F101112131415161718191A9D
:082B10001B1C1D1E1F202800E4
:042B180078563412A5
:04000005080A001CC9
:00000001FF
