:02000004080AE8
:1000000000000A0828320A08000006000600050160
:0800100004027E05000000005F
:04001800402E0A0864
:10001C0009480A4908B5884205D0094A824202D0EB
:10002C00121A02F09DFE0748074A0021121A02F02C
:10003C00A2FE064808BD00BF0000002094310A084B
:10004C006C0000206C0000202406002024060020F8
:10005C0070B502F051FC074B074C1E46E41AA4087D
:10006C000025A54204D056F8253098470135F8E70D
:10007C0070BD00BF58310A0890310A0800F00EB963
:10008C0008B500F0D6F8BDE8084002F0F7BB01F067
:10009C008FBC01F095BC0078B0FA80F04009704735
:1000AC00012303707047012A02D0022A02D004E017
:1000BC00016002E00B6800B103600020704730B5AE
:1000CC00154689B004680968684602F08FF92968FA
:1000DC0004A802F08BF904A96846A04704A802F012
:1000EC003EF9684602F03BF909B030BD30B5284BFB
:1000FC0085B01B780D468DF8003000223C23254935
:10010C0002A801F00DFE039C7CB16368013B6360A7
:10011C005BB9236820469B689847A368013BA360A2
:10012C001BB923682046DB6898471B49284602F018
:10013C009BF928B91949284602F096F980B91EE0B6
:10014C0000240022A1B20092DC23154801F02EFA03
:10015C0001341149134802F076F90C2CF1D1E9E77E
:10016C0000240023A1B20093DC220D4801F01EFAFA
:10017C0001340A490B4802F066F90C2CF1D10A4BF8
:10018C001B7813B9064800F057F905B030BD00BF15
:10019C0080000020542E0A08652E0A08682E0A08D2
:1001AC0084000020700000200000002010B50C46D8
:1001BC0088B01549204602F057F9A0B1134B002224
:1001CC00134968461A7002F011F9124904A802F09A
:1001DC002FF904A96846FFF789FF04A802F0BFF8BD
:1001EC00684602F0BCF80C49204602F03DF940B1DB
:1001FC000A4801F030FA094800F01EF9034B0122BD
:10020C001A7008B010BD00BF6C2E0A080000002048
:10021C00752E0A08700000207C2E0A08840000202D
:10022C0010B58368044613B1032201469847204653
:10023C0010BD704738B5002383608B6804460D46AB
:10024C002BB102229847EB68E360AB68A3602046B1
:10025C0038BD000030B587B0044602A8FFF7EAFFAE
:10026C00049B0BB9002411E01020FFF710FF05468A
:10027C000028F7D002A9FFF7DDFF002320460193E9
:10028C0000932A46044901F033FB044602A8FFF709
:10029C00C7FF204607B030BDC51A0A087FB5164CFB
:1002AC00164D204600F092F8154E20460521154CAF
:1002BC0001F0ABF969461448009603950294FFF7D8
:1002CC00C9FF6846FFF7ACFF6946104800960395D6
:1002DC000294FFF7BFFF6846FFF7A2FF0C4B69467D
:1002EC000C48009303950294FFF7B4FF6846FFF7A0
:1002FC0097FF04B070BD00BF84000020CB000A083B
:10030C00F9000A08B3000A08862E0A088C2E0A087F
:10031C00B9010A08932E0A0838B50F4B0F4C01226D
:10032C001A700F4D01F0C6F9022305220C2120464C
:10033C0000F071F820460B4C2A460B4902F0B0FB3A
:10034C000A49204602F052F82A462046BDE83840B9
:10035C00074902F0A5BB00BF8000002084000020EC
:10036C006C0000207000002085030A08B62F0A08D4
:10037C006B230A0801F08EB910B50446C06808B1A9
:10038C0001F01EFB23781BB10021E07902F004FB85
:10039C00204610BD38B50446C0680D4608B101F0C2
:1003AC000FFBA379062B0CBF04200320684380B2FB
:1003BC00A08001F0FDFAE06028B1A288002102F0D3
:1003CC00DAFC658038BDA080608038BD10B504466D
:1003DC000121C07902F0E0FA0021E07902F0EDFA97
:1003EC000123237010BD38B5037805460C461BB1AC
:1003FC000021C07902F0D0FA2B78EC7153B1A4B281
:10040C002046012102F0C8FA2046BDE83840002100
:10041C0002F0D3BA38BD70B5044616460025837178
:10042C0005700572C5600561FFF7B4FF20463146C3
:10043C00FFF7D9FF204670BDC368002B00F08E85F6
:10044C002DE9F0410446837986B0023BDBB2042BE4
:10045C0096BF294A322552F82350FFF78BFF2369A8
:10046C00C01AA842F9D372B6A179A3880229ADF8B3
:10047C000A30D4F80CE000F07282072900F06F8289
:10048C00062900F03284052900F0AB83082900F01E
:10049C00A883002940F06385184A4FF40006BDF884
:1004AC000A309BB2002B00F095830496BDF80A30FD
:1004BC000EF10305033B9BB2ADF80A309EF80030F9
:1004CC00DBB28DF807309EF80130DBB28DF80630C8
:1004DC009EF80230DBB28DF808309DF807709DF85D
:1004EC0006309DF808001B0243EA074303430393BD
:1004FC008DF805101BE100BFA02E0A089800002003
:10050C00004600BF00BF00BF00BF00BF00BF00BF60
:10051C0000BF00BF00BF00BF00BF00BF00BF00BFD7
:10052C0000BF00BF00BF00BF00BF00BF00BF00BFC7
:10053C0000BF00BF00BF00BF00BF00BF00BF00BFB7
:10054C0000BF00BF00BF00BF00BF00BF00BF00BFA7
:10055C0000BF00BF00BF00BF00BF00BF00BF00BF97
:10056C0000BF00BF00BF00BF00BF00BF00BF00BF87
:10057C0000BF00BF00BF00BF00BF00BF00BF00BF77
:10058C0000BF00BF00BF00BF00BF00BF00BF00BF67
:10059C0000BF00BF00BF00BF00BF00BF00BF00BF57
:1005AC0000BF00BF00BF00BF00BF00BF00BF00BF47
:1005BC0000BF00BF00BF00BF00BF00BF00BF00BF37
:1005CC0000BF00BF00BF00BF00BF00BF00BF00BF27
:1005DC0000BF00BF00BF00BF00BF00BF00BF00BF17
:1005EC0000BF00BF00BF00BF00BF00BF00BF00BF07
:1005FC0000BF00BF00BF00BF00BF00BF00BF00BFF7
:10060C0000BF00BF00BF00BFE3791068C3EBC3039A
:10061C0000EB8307BF8850F823305F83004600BF90
:10062C0000BF00BF00BF00BF00BF00BF00BF00BFC6
:10063C0000BF00BF00BF00BF00BF00BF00BF00BFB6
:10064C0000BF00BF00BF00BF00BF00BF00BF00BFA6
:10065C0000BF00BF00BF00BF00BF00BF00BF00BF96
:10066C0000BF00BF00BF00BF00BF00BF00BF00BF86
:10067C0000BF00BF00BF00BF00BF00BF00BF00BF76
:10068C0000BF00BF00BF00BF00BF00BF00BF00BF66
:10069C0000BF00BF00BF00BF00BF00BF00BF00BF56
:1006AC0000BF00BF00BF00BF00BF00BF00BF00BF46
:1006BC0000BF00BF00BF00BF00BF00BF00BF00BF36
:1006CC0000BF00BF00BF00BF00BF00BF00BF00BF26
:1006DC0000BF00BF00BF00BF00BF00BF00BF00BF16
:1006EC0000BF00BF00BF00BF00BF00BF00BF00BF06
:1006FC0000BF00BF00BF00BF00BF00BF00BF00BFF6
:10070C0000BF00BF00BF00BF00BF00BF00BF00BFE5
:10071C0000BF00BF00BF049B5B0804939DF805302D
:10072C000133DBB2172B8DF8053000F2DB82E37955
:10073C001068C3EBC30300EB8307BF8850F823306A
:10074C001F830398049B18427FF4DAAE004600BF67
:10075C0000BF00BF00BF00BF00BF00BF00BF00BF95
:10076C0000BF00BF00BF00BF00BF00BF00BF00BF85
:10077C0000BF00BF00BF00BF00BF00BF00BF00BF75
:10078C0000BF00BF00BF00BF00BF00BF00BF00BF65
:10079C0000BF00BF00BF00BF00BF00BF00BFE379B8
:1007AC001068C3EBC30300EB8307BF8850F82330FA
:1007BC005F83004600BF00BF00BF00BF00BF00BF8B
:1007CC0000BF00BF00BF00BF00BF00BF00BF00BF25
:1007DC0000BF00BF00BF00BF00BF00BF00BF00BF15
:1007EC0000BF00BF00BF00BF00BF00BF00BF00BF05
:1007FC0000BF00BF00BF00BF00BF00BF00BF00BFF5
:10080C0000BF00BF00BF00BF00BF00BF00BF00BFE4
:10081C0000BF00BF00BF00BF00BF00BF00BF00BFD4
:10082C0000BF00BF00BF00BF00BF00BF00BF00BFC4
:10083C0000BF00BF00BF00BF00BF00BF00BF00BFB4
:10084C0000BF00BF00BF00BF00BF00BF00BF00BFA4
:10085C0000BF00BF00BF00BF00BF00BF00BF00BF94
:10086C0000BF00BF00BF00BF00BF00BF00BF00BF84
:10087C0000BF00BF00BF00BF00BF00BF00BF00BF74
:10088C0000BF00BF00BF00BF00BF00BF00BF00BF64
:10089C0000BF00BF00BF00BF00BF00BF00BF00BF54
:1008AC0000BF00BF00BF00BF00BF00BF00BF00BF44
:1008BC0000BF00BF00BF00BF00BF00BF00BF00BF34
:1008CC0000BF00BF00BF00BF00BF00BF00BF00BF24
:1008DC0000BF00BF00BF00BF00BF00BF00BF00BF14
:1008EC0000BF00BF00BF00BF00BF00BF00BF00BF04
:1008FC0000BF00BF00BF00BF00BF00BF00BF00BFF4
:10090C0000BF00BF00BF00BF00BF00BF00BF00BFE3
:10091C0000BF00BF00BF00BF00BF00BF00BF00BFD3
:10092C0000BF00BF00BF00BF00BF00BF00BF00BFC3
:10093C0000BF00BF00BF00BF00BF00BF00BF00BFB3
:10094C0000BF00BF00BF00BF00BF00BF00BF00BFA3
:10095C0000BF00BF00BF00BF00BF00BFDBE6BDF89B
:10096C000A30174A9BB24FF400050026002B00F00A
:10097C0031810495BDF80A300EF10301033B9BB2A3
:10098C00ADF80A309EF80030DBB28DF806309EF8D8
:10099C000130DBB28DF807309EF80230DBB28DF8F7
:1009AC0008309DF806309DF807009DF8087000028D
:1009BC0040EA03433B4303938DF8056080E000BF9E
:1009CC0098000020004600BF00BF00BF00BF00BF62
:1009DC0000BF00BF00BF00BF00BF00BF00BF00BF13
:1009EC0000BF00BF00BF00BF00BF00BF00BF00BF03
:1009FC0000BF00BF00BF00BF00BF00BF00BF00BFF3
:100A0C0000BF00BF00BF00BF00BF00BF00BF00BFE2
:100A1C0000BF00BF00BF00BF00BF00BF00BF00BFD2
:100A2C0000BF00BF00BF00BF00BF00BF00BF00BFC2
:100A3C0000BF00BF00BF00BF00BF00BF00BF00BFB2
:100A4C0000BF00BF00BF00BF00BF00BF00BF00BFA2
:100A5C0000BF00BF00BF00BF00BF00BF00BFE379F5
:100A6C001068C3EBC30300EB8307BF8850F8233037
:100A7C005F83004600BF00BF00BF00BF00BF00BFC8
:100A8C0000BF00BF00BF00BF00BF00BF00BF00BF62
:100A9C0000BF00BF00BF00BF00BF00BF00BF00BF52
:100AAC0000BF00BF00BF00BF049B5B0804939DF810
:100ABC0005300133DBB2172B8DF8053000F2838043
:100ACC00E3791068C3EBC30300EB8307BF8850F8CE
:100ADC0023301F830398049B18427FF473AF0046A6
:100AEC0000BF00BF00BF00BF00BF00BF00BF00BF02
:100AFC0000BF00BF00BF00BF00BF00BF00BF00BFF2
:100B0C0000BF00BF00BFE3791068C3EBC30300EB69
:100B1C008307BF8850F823305F83004600BF00BFB7
:100B2C0000BF00BF00BF00BF00BF00BF00BF00BFC1
:100B3C0000BF00BF00BF00BF00BF00BF00BF00BFB1
:100B4C0000BF00BF00BF00BF00BF00BF00BF00BFA1
:100B5C0000BF00BF00BF00BF00BF00BF00BF00BF91
:100B6C0000BF00BF00BF00BF00BF00BF00BF00BF81
:100B7C0000BF00BF00BF00BF00BF00BF00BF00BF71
:100B8C0000BF00BF00BF00BF00BF00BF00BF00BF61
:100B9C0000BF00BF00BF00BF00BF00BF00BF00BF51
:100BAC0000BF00BF00BF00BF00BF00BF00BF00BF41
:100BBC0000BF00BF00BF00BF00BF00BF00BF00BF31
:100BCC0000BF00BF70E7BDF80A308E469BB2002B09
:100BDC007FF4CFAE62B6FFF7CDFB206106B0BDE867
:100BEC00F0815E4B5E4A184611684FF400080027EE
:100BFC00BDF80A2092B2002AECD0CDF81080BDF8D6
:100C0C000A200EF10305033A92B2ADF80A209EF8C1
:100C1C000020D2B28DF806209EF80120D2B28DF8B9
:100C2C0007209EF80220D2B28DF808209DF80620ED
:100C3C009DF807E09DF808C04FEA0E2E4EEA0242DE
:100C4C0042EA0C0203928DF80570E2795E68C2EB01
:100C5C00C20201EB820EBEF804E051F82220059688
:100C6C00A2F818E0039E049A164223D05A68059EF7
:100C7C00921B4F2AFAD9E279C2EBC20201EB820E27
:100C8C00BEF804E051F82220A2F81AE0426805925E
:100C9C005A68059E921B072AFAD9049A52080492A4
:100CAC009DF805200132D2B2172A8DF80520CCD937
:100CBC00AE469DE75A68059E921B182AFAD9E2792E
:100CCC00C2EBC20201EB820EBEF804E051F8222006
:100CDC00A2F81AE0426805925A68059E921B452AB2
:100CEC00FAD9DAE7AE46FFF7DABB1D4A4FF00045FA
:100CFC000026BDF80A309BB2002B3FF46BAF049575
:100D0C00BDF80A300EF10401043B9BB2ADF80A3079
:100D1C009EF80030DBB28DF807309EF80130DBB264
:100D2C008DF806309EF80230DBB28DF808309EF854
:100D3C000330DBB28DF809309DF807309DF8067052
:100D4C009DF808E03F049DF8090047EA036303435C
:100D5C0043EA0E2303938DF805607EE0001000E05B
:100D6C0098000020004600BF00BF00BF00BF00BFBE
:100D7C0000BF00BF00BF00BF00BF00BF00BF00BF6F
:100D8C0000BF00BF00BF00BF00BF00BF00BF00BF5F
:100D9C0000BF00BF00BF00BF00BF00BF00BF00BF4F
:100DAC0000BF00BF00BF00BF00BF00BF00BF00BF3F
:100DBC0000BF00BF00BF00BF00BF00BF00BF00BF2F
:100DCC0000BF00BF00BF00BF00BF00BF00BF00BF1F
:100DDC0000BFE3791068C3EBC30300EB8307BF8844
:100DEC0050F823305F83004600BF00BF00BF00BF38
:100DFC0000BF00BF00BF00BF00BF00BF00BF00BFEF
:100E0C0000BF00BF00BF00BF00BF00BF00BF00BFDE
:100E1C0000BF00BF00BF00BF00BF00BF00BF00BFCE
:100E2C0000BF00BF00BF00BF00BF00BF00BF00BFBE
:100E3C0000BF00BF00BF00BF00BF00BF00BF00BFAE
:100E4C0000BF00BF049B5B0804939DF80530013381
:100E5C00DBB21F2B8DF805307ED8E3791068C3EB1D
:100E6C00C30300EB8307BF8850F823301F8303981C
:100E7C00049B18427FF476AF004600BF00BF00BF52
:100E8C0000BF00BF00BF00BF00BF00BF00BF00BF5E
:100E9C0000BF00BF00BF00BF00BF00BF00BF00BF4E
:100EAC00E3791068C3EBC30300EB8307BF8850F8EA
:100EBC0023305F83004600BF00BF00BF00BF00BFF0
:100ECC0000BF00BF00BF00BF00BF00BF00BF00BF1E
:100EDC0000BF00BF00BF00BF00BF00BF00BF00BF0E
:100EEC0000BF00BF00BF00BF00BF00BF00BF00BFFE
:100EFC0000BF00BF00BF00BF00BF00BF00BF00BFEE
:100F0C0000BF00BF00BF00BF00BF00BF00BF00BFDD
:100F1C0000BF00BF00BF00BF00BF00BF00BF00BFCD
:100F2C0000BF00BF00BF00BF00BF00BF00BF00BFBD
:100F3C0000BF00BF00BF00BF00BF00BF00BF00BFAD
:100F4C0000BF00BF00BF00BF00BF00BF00BF00BF9D
:100F5C0000BF00BF00BF75E78E46CAE67047032985
:100F6C0000F02E811E4A4FF400050026BDF80A3011
:100F7C009BB2002B3FF42EAE0495BDF80A30E079FD
:100F8C00033B9BB2ADF80A309EF800300EF1030122
:100F9C00DBB28DF807309EF80130C0EBC000DBB23D
:100FAC008DF808309EF80230D2F800E0DBB28DF8F4
:100FBC0006309DF807709DF808300EEB800C1B0274
:100FCC0043EA07439DF80670BCF804C05EF82000A5
:100FDC003B4303938DF80560A0F81AC07DE000BF79
:100FEC0098000020049B5B080493004600BF00BFE0
:100FFC0000BF00BF00BF00BF00BF00BF00BF00BFED
:10100C0000BF00BF00BF00BF00BF00BF00BF00BFDC
:10101C0000BF00BF00BF00BF00BF00BF00BF00BFCC
:10102C0000BF00BF00BF00BF00BF00BF00BF00BFBC
:10103C0000BF00BF00BF00BF00BF00BF00BF00BFAC
:10104C0000BF00BF00BF00BF00BF00BF00BF00BF9C
:10105C0000BF00BF00BF00BF00BF00BF00BF00BF8C
:10106C0000BF00BF00BF00BF00BF00BF00BF00BF7C
:10107C00E07917689DF80530C0EBC00007EB800ED7
:10108C00BEF804E057F820000133DBB28DF80530D0
:10109C00A0F818E0004600BF00BF00BF00BF00BFB3
:1010AC0000BF00BF00BF00BF00BF00BF00BF00BF3C
:1010BC0000BF00BF00BF00BF00BF00BF00BF9DF856
:1010CC000530182B7AD0E3791068C3EBC30300EB1F
:1010DC008307BF8850F823305F830398049B184222
:1010EC0080D1004600BF00BF00BF00BF00BF00BFE3
:1010FC0000BF00BF00BF00BF00BF00BF00BF00BFEC
:10110C0000BF00BFE3791068C3EBC30300EB830798
:10111C00BF8850F823301F839DF805300133DBB2B4
:10112C008DF80530049B5B080493004600BF00BF9C
:10113C0000BF00BF00BF00BF00BF00BF00BF00BFAB
:10114C0000BF00BF00BF00BF00BF00BF00BF00BF9B
:10115C0000BF00BF00BF00BF00BF00BF00BF00BF8B
:10116C0000BF00BF00BF00BF00BF00BF00BF00BF7B
:10117C0000BF00BF00BF00BF00BF00BF00BF00BF6B
:10118C0000BF00BF00BF00BF00BF00BF00BF00BF5B
:10119C0000BF00BF00BF00BF00BF00BF00BF00BF4B
:1011AC0000BF00BF00BF00BF00BF00BF00BF00BF3B
:1011BC0000BF00BF9DF80530182B84D18E46D5E6B4
:1011CC00174A4FF400050026BDF80A309BB2002BDD
:1011DC003FF400AD0495BDF80A300EF10301033B5A
:1011EC009BB2ADF80A309EF80030DBB28DF80730B8
:1011FC009EF80130DBB28DF806309EF80230DBB27F
:10120C008DF808309DF807709DF806309DF80800A1
:10121C001B0243EA0743034303938DF80560E0E0A8
:10122C0098000020004600BF00BF00BF00BF00BFF9
:10123C0000BF00BF00BF00BF00BF00BF00BF00BFAA
:10124C0000BF00BF00BF00BF00BF00BF00BF00BF9A
:10125C0000BF00BF00BF00BF00BF00BF00BF00BF8A
:10126C0000BF00BF00BF00BF00BF00BF00BF00BF7A
:10127C0000BF00BF00BF00BF00BF00BF00BF00BF6A
:10128C0000BF00BF00BF00BF00BF00BF00BF00BF5A
:10129C0000BF00BF00BF00BF00BF00BF00BF00BF4A
:1012AC0000BF00BF00BF00BF00BF00BF00BF00BF3A
:1012BC0000BF00BF00BF00BF00BF00BF00BF00BF2A
:1012CC0000BF00BF00BF00BF00BF00BF00BF00BF1A
:1012DC0000BF00BF00BF00BF00BF00BF00BF00BF0A
:1012EC0000BF00BF00BF00BF00BF00BF00BF00BFFA
:1012FC0000BF00BF00BF00BF00BF00BF00BF00BFEA
:10130C0000BF00BF00BF00BF00BF00BF00BF00BFD9
:10131C0000BF00BF00BF00BF00BF00BF00BF00BFC9
:10132C0000BF00BF00BF00BF00BF00BF00BF00BFB9
:10133C0000BF00BF00BF00BF00BF00BF00BF00BFA9
:10134C0000BF00BF00BFE3791068C3EBC30300EB21
:10135C008307BF8850F823305F83004600BF00BF6F
:10136C0000BF00BF00BF00BF00BF00BF00BF00BF79
:10137C0000BF00BF00BF00BF00BF00BF00BF00BF69
:10138C0000BF00BF00BF00BF00BF00BF00BF00BF59
:10139C0000BF00BF00BF00BF00BF00BF00BF00BF49
:1013AC0000BF00BF00BF00BF00BF00BF00BF00BF39
:1013BC0000BF00BF00BF00BF00BF00BF00BF00BF29
:1013CC0000BF00BF00BF00BF00BF049B5B080493BD
:1013DC009DF805300133DBB2172B8DF8053000F288
:1013EC00E380E3791068C3EBC30300EB8307BF888A
:1013FC0050F823301F830398049B18427FF412AFDC
:10140C00004600BF00BF00BF00BF00BF00BF00BF51
:10141C0000BF00BF00BF00BF00BF00BF00BF00BFC8
:10142C0000BF00BF00BF00BF00BF00BF00BF00BFB8
:10143C0000BF00BF00BF00BF00BF00BF00BF00BFA8
:10144C0000BF00BF00BF00BF00BF00BF00BF00BF98
:10145C0000BF00BF00BF00BF00BF00BF00BF00BF88
:10146C0000BF00BF00BF00BF00BF00BF00BF00BF78
:10147C0000BF00BF00BF00BF00BF00BF00BF00BF68
:10148C0000BFE3791068C3EBC30300EB8307BF888D
:10149C0050F823305F83004600BF00BF00BF00BF81
:1014AC0000BF00BF00BF00BF00BF00BF00BF00BF38
:1014BC0000BF00BF00BF00BF00BF00BF00BF00BF28
:1014CC0000BF00BF00BF00BF00BF00BF00BF00BF18
:1014DC0000BF00BF00BF00BF00BF00BF00BF00BF08
:1014EC0000BF00BF00BF00BF00BF00BF00BF00BFF8
:1014FC0000BF00BF00BF00BF00BF00BF00BF00BFE8
:10150C0000BF00BF00BF00BF00BF00BF00BF00BFD7
:10151C0000BF00BF00BF00BF00BF00BF00BF00BFC7
:10152C0000BF00BF00BF00BF00BF00BF00BF00BFB7
:10153C0000BF00BF00BF00BF00BF00BF00BF00BFA7
:10154C0000BF00BF00BF00BF00BF00BF00BF00BF97
:10155C0000BF00BF00BF00BF00BF00BF00BF00BF87
:10156C0000BF00BF00BF00BF00BF00BF00BF00BF77
:10157C0000BF00BF00BF00BF00BF00BF00BF00BF67
:10158C0000BF00BF00BF00BF00BF00BF00BF00BF57
:10159C0000BF00BF00BF00BF00BF00BF00BF00BF47
:1015AC0000BF00BF00BF10E78E460DE6F0B54488C3
:1015BC009DF814508C4227D9047A44B1624363439A
:1015CC006C43C2F30722C3F30723C4F307258779BF
:1015DC00C66801EB4101082F06EB010411D801206C
:1015EC00B84010F4D27F08D1C0060AD5FF2A08BF34
:1015FC00FE2272546570A370F0BD73546270A570B6
:10160C00F0BD72546370A570F0BD4A1C037AD2B25F
:10161C009A4270B51ED0013B13F0FF03C4680CD086
:10162C00FF290FBF4FF6FF71110201F1FF3191FB42
:10163C00F3F30CBF91FBF3F39BB22546291B868871
:10164C0089B28E4205D929785943091205F8011B34
:10165C00F4E7027270BD82880021C06801F08BBB78
:10166C0008B500F027F800F025F8014B186008BD0C
:10167C009800002008B5024B1B681B6B019308BD3A
:10168C00D001060808B5024B1B685B68019308BDC6
:10169C009C01060808B5024B1B681B69019308BD29
:1016AC009C01060808B5024B1B685B69019308BDD9
:1016BC009C01060808B5024B1B681B68019308BD0A
:1016CC00B001060808B5024B1B689B68019308BD66
:1016DC00B001060808B5024B1B68DB68019308BD16
:1016EC00B001060808B5024B1B681B69019308BDC5
:1016FC00B001060808B5024B1B681B6E019308BDB0
:10170C00AC01060808B5024B1B685B6E019308BD63
:10171C00AC01060808B5024B1B689B6E019308BD13
:10172C00AC01060808B5024B1B68DB6E019308BDC3
:10173C00AC01060808B5024B1B681B6F019308BD72
:10174C00AC01060808B5024B1B685B6F019308BD22
:10175C00AC01060808B5034B1B68D3F88030019325
:10176C0008BD0000AC01060808B5024B1B68DB691C
:10177C00019308BDB401060808B5024B1B681B6A2F
:10178C00019308BDB401060808B5024B1B689B69A0
:10179C00019308BDC401060808B5024B1B685B6ABF
:1017AC00019308BDC401060808B5024B1B689B6A6F
:1017BC00019308BDC401060808B5024B1B68DB6A1F
:1017CC00019308BDC401060808B5024B1B681B6BCE
:1017DC00019308BDC401060808B5024B1B685B6B7E
:1017EC00019308BDC401060808B5024B1B689B6B2E
:1017FC00019308BDC401060808B5024B1B681B6C9D
:10180C00019308BDC401060808B5024B1B681B6890
:10181C00019308BDD801060808B5024B1B681B696B
:10182C00019308BDD801060808B5024B1B685B691B
:10183C00019308BDD801060808B5024B1B689B69CB
:10184C00019308BDD801060808B5024B1B68DB697B
:10185C00019308BDD801060808B5024B1B681B6A2A
:10186C00019308BDD801060808B5024B1B689B6C98
:10187C00019308BDC001060808B5024B1B685B68E4
:10188C00019308BDA401060808B5024B1B68DB6C6C
:10189C00019308BDA401060808B5024B1B685B6DDB
:1018AC00019308BDA401060808B5034B1B68D3F8C7
:1018BC009030019308BD0000A401060808B5034B45
:1018CC001B68D3F89C30019308BD0000A4010608E6
:1018DC0008B5024B1B685B69019308BDCC01060877
:1018EC0008B5024B1B681B6A019308BDCC010608A6
:1018FC0008B5024B1B685B6A019308BDCC01060856
:10190C0008B5024B1B68DB6B019308BDCC010608C4
:10191C0008B5024B1B685B68019308BDC80106083B
:10192C0008B5024B1B689B68019308BDC8010608EB
:10193C0008B5024B1B68DB68019308BDC80106089B
:10194C0008B5024B1B681B69019308BDC80106084A
:10195C0008B5024B1B685B69019308BDC8010608FA
:10196C0008B5024B1B689B69019308BDC8010608AA
:10197C0008B5024B1B68DB69019308BDC80106085A
:10198C0008B5024B1B681B6A019308BDC801060809
:10199C0008B5024B1B681B6B019308BDC8010608F8
:1019AC0008B5024B1B685B6B019308BDC8010608A8
:1019BC0008B5024B1B681B68019308BDA001060803
:1019CC0008B5024B1B685B68019308BDA0010608B3
:1019DC0008B5024B1B689B68019308BDA001060863
:1019EC0008B5024B1B68DB6A019308BDA001060811
:1019FC0008B5024B1B681B6B019308BDA0010608C0
:101A0C0010B5836804460BB901F051F8C3689847C8
:101A1C00A3681BB103222146204698472046BDE807
:101A2C001040102101F041B870470020704710B5EC
:101A3C000446102101F039F8204610BD08B508B154
:101A4C00FFF7F5FF08BD002202604FF69C72828002
:101A5C0010B5B1F9044084808A8002680C68046077
:101A6C000A6010BD10B504460068FFF7A9FF2046B8
:101A7C0010BD38B5C468F4B12378022B03D104F13E
:101A8C000C00FFF7EFFF656835B12846FEF7C8FB81
:101A9C001021284601F009F8A56835B12846FEF753
:101AAC00BFFB1021284601F000F82046BDE8384065
:101ABC00142100F0FABF38BD07B58DE80600826826
:101ACC000AB900F0F4FFC36801AA6946984703B04D
:101ADC005DF804FB38B5046805467CB16368013BCE
:101AEC0063605BB9236820469B689847A368013BF9
:101AFC00A3601BB923682046DB689847284638BD8D
:101B0C0013B5044691E8050000234B600B60206080
:101B1C00626001A801930093FFF7DCFF204602B03E
:101B2C0010BD0B68036013B15A6801325A607047DC
:101B3C00F7B50C4606460F4654F8043B02AD45F883
:101B4C00083D214601A8FFF7ECFF29463046FFF778
:101B5C00D7FF01A8FFF7BEFF2046FFF7BBFF3846B3
:101B6C00082100F0A2FF304603B0F0BD13B50B46C0
:101B7C00044603C88DE8030093E8030084E80300DF
:101B8C009DE8030083E8030002B010BD38B50023C4
:101B9C000446036010200D46FEF779FA28B10123A4
:101BAC0043608360024BC56003602060204638BDF3
:101BBC00BC2E0A08826810B50AB900F078FFC36819
:101BCC00BDE81040184708B5006800F11001FFF798
:101BDC00F1FF08BD826810B50AB900F068FFC36850
:101BEC00BDE81040184708B5006800F11001FFF778
:101BFC00F1FF08BD38B5002383608B6804460D46A1
:101C0C002BB102229847EB68E360AB68A3602046D7
:101C1C0038BD0000F0B589B004686846FFF713FFC3
:101C2C004FF0020200238DF80830D4E84F3F002B10
:101C3C0003D1C4E8412F0029F7D102D08DF8083028
:101C4C0063E014F10C0503D069462846FFF7FBFE50
:101C5C00BFF35F8F01236370BFF35F8F04F1080341
:101C6C00002053E8006F43E80002002AF9D1BFF3CB
:101C7C005F8F002E49D0FFF707FE20B12946304672
:101C8C00FFF798FF3AE0314602A8FFF7B3FFE06890
:101C9C00B4F9105008B101F0A9F806901020ADF875
:101CAC001C50FEF7F4F90546E8B1002787601820B0
:101CBC00FEF7EDF9044688B10146876002A8FFF7EC
:101CCC0055FF049BA268A360059B0492E26806A9D9
:101CDC00E36004F110000592FFF7B5FE0D4B2C608C
:101CEC00EB600D4BAB6006A8FFF7BCFE02A8FEF73D
:101CFC0097FA002229460948FFF7CEFD3046FEF739
:101D0C008FFA1021304600F0D0FE6846FFF7AAFE8D
:101D1C0009B0F0BDD31B0A08491E0A080D1A0A089F
:101D2C002DE9F04F8BB006460F46904699469DF82C
:101D3C0050A0FFF7CDFD07AD834630BB4FF62E7399
:101D4C00059005A92846ADF81830FFF77CFE142045
:101D5C00FEF79DF9044658B102230370012343702A
:101D6C00C0F804B0C0F808B029460C30FFF76BFE81
:101D7C003046214640F8044BFFF708FF2846FFF792
:101D8C0071FE05A8FFF76EFE52E000240C23142010
:101D9C006C60AC600793FEF77AF9014618B10470D9
:101DAC0044704460846004A80391FFF7EFFE224B5B
:101DBC0008200893FEF76BF9044628B1039B04A98D
:101DCC0040F8043BFFF7ADFE00955FFA8AF34A46F4
:101DDC00414638460994FFF783FD20B9039B5B7895
:101DEC0003F0FF0283B1039B04A906A80593FFF738
:101DFC0098FE05A93046FFF783FE06A8FFF76AFE9A
:101E0C0004A8FFF767FE13E04FF69C7305A903A81F
:101E1C000592ADF81830FFF7FDFE05A8FFF722FE7E
:101E2C0005A80999FFF784FE06A8FFF753FEDAE729
:101E3C0030460BB0BDE8F08FB91F0A08022AF8B57E
:101E4C00044606D0032A17D0012A22D10B6803605E
:101E5C001FE018200E68FEF71AF9054650B13146FE
:101E6C00FFF7C8FE3069B6F9147008B100F0BEFF78
:101E7C002861AF8225600CE0046854B104F11000B5
:101E8C00FFF7F0FD2046FEF7CBF91821204600F0B5
:101E9C000CFE0020F8BD38B5002383608B68044627
:101EAC000D462BB102229847EB68E360AB68A36048
:101EBC00204638BD022A70B5044606D0032A11D03C
:101ECC00012A18D10B68036015E014200E68FEF788
:101EDC00DEF8054620B13146FFF7DDFF337C2B746D
:101EEC00256008E0046834B12046FEF799F9142106
:101EFC00204600F0DAFD002070BD0000F0B50C4665
:101F0C00BFF35F8F87B0002350E8006F40E80032CA
:101F1C00002AF9D1BFF35F8F002E3FD01846FFF790
:101F2C00B3FC074620B121463046FFF753FE2EE0A6
:101F3C00314601A8FFF7AFFF237810208DF814303D
:101F4C00FEF7A5F80546D0B187601420FEF79FF880
:101F5C00044678B18760014601A8FFF707FE039B92
:101F6C00A268A360049B0392E268E3609DF81430BE
:101F7C00049223740A4B2C60EB600A4BAB6001A8F3
:101F8C00FEF74EF9002229460748FFF785FC30463C
:101F9C00FEF746F91021304600F087FD07B0F0BD82
:101FAC00F31B0A08C11E0A080D1A0A0830B50446AC
:101FBC0085B00D4668461146FFF7BAFD7CB124B2D8
:101FCC0028460DB100F012FF029002A96846ADF848
:101FDC000C40FFF71FFE02A8FFF744FD1DE04FF079
:101FEC00010200988DF80840D0E84F3FA34203D17E
:101FFC00C0E8412F0029F7D102D08DF808300CE051
:10200C0010F10C014FF0010318BF0373BFF35F8F86
:10201C00043000F8033CFFF771FF01A8FFF75AFDED
:10202C0005B030BD7047F8B5064615460C468F18FE
:10203C00BC4206D0336814F8011B9B6830469847A5
:10204C00F6E72846F8BD0022007CFFF753BB0021C1
:10205C00007CFFF757BB0021007CFFF75BBB002126
:10206C00007CFFF75FBB0021007CFFF763BB10B562
:10207C000446142100F019FD204610BD10B504468D
:10208C0008464FF47A73A360044B002120746160FE
:10209C002360FFF75FFB204610BD00BFD82E0A0857
:1020AC000021007CFFF74EBB704710B50446182189
:1020BC0000F0FBFC204610BDF8B50F4600F10806F9
:1020CC00051D002416F8011D0A22384600F011F9EE
:1020DC00AE42044407D0002CF4D02E21384600F038
:1020EC00DBF80444EEE72046F8BD000010B50446CA
:1020FC00044B112240F8043B002100F03CFE20462A
:10210C0010BD00BF002F0A080346074A10B543F85C
:10211C00042B01F1100251F8044B914243F8044B8B
:10212C00F9D10A781A7010BD002F0A08024A4160D2
:10213C000260042202757047002F0A0810B59DF842
:10214C00084044EA032343EA024242EA01610423C1
:10215C004160037510BD000037B5044D05609DF856
:10216C0018500095FFF7EAFF03B030BD002F0A08A6
:10217C00014A024B1A607047822F0A089C0000200B
:10218C0000231A464068FFF7C3BB002202214068B7
:10219C00FFF7CEBB002211464068FFF7C1BB0022FF
:1021AC0011464068FFF7CCBB00231A46194640681D
:1021BC00FFF7CEBB00231A4619464068FFF7D0BB89
:1021CC00002281F001014068FFF7D2BB0022406879
:1021DC00FFF7DEBB002211464068FFF7E1BB00228F
:1021EC0011464068FFF7CCBB70B516468EB004465E
:1021FC0008A8FFF77BFF1122002103A800F0BBFD0C
:10220C00304600F00EFE00250A4B009581B25B684B
:10221C0003AA3046FFF728FB20B129462046FFF7DA
:10222C0085FF03E003A92046FFF76EFF20460EB0A2
:10223C0070BD00BF20050020024B034A1A6000222B
:10224C005A607047A0000020F82F0A08F8B506461F
:10225C000D468F180024BD420CD0336815F8011BB5
:10226C009B6830469847002801DB0444F3E7002CB8
:10227C0008BF04462046F8BD70B505460C46084616
:10228C0049B100F0CEFD2B68024621462846BDE838
:10229C007040DB68184770BD03689B681847012ABB
:1022AC0098BF0A2230B50B468BB000218DF8241054
:1022BC000DF12304B3FBF2F505FB1233DBB2092B52
:1022CC0094BF30333733DBB2214604F801392B4647
:1022DC00002DEFD1FFF7D0FF0BB030BD10B422B9F9
:1022EC000368C9B29B6810BC1847D2B210BCFFF788
:1022FC00D6BFFFF7F3BF10B50446FDF791FF20469C
:10230C0010BD0000034800238360034A034900F01A
:10231C00C7BB00BFA80000206C00002003230A08E4
:10232C00704710B50446102100F0BFFB204610BDCD
:10233C0070B504460E46074B0025036040F80C5F51
:10234C00FFF798F930462671FFF70EFAA560204684
:10235C0070BD00BF2C300A080079FFF70DBA10B51C
:10236C0004460068FFF72CFB204610BD10B5044650
:10237C00006808B1FFF724FB00232360A3606360AF
:10238C0010BD38B504460D4600680131FFF720FB3F
:10239C0010B184E82100012038BD10B50368044653
:1023AC0013B143688B4207D22046FFF7EAFF20B1F6
:1023BC00A3680BB922681370012010BD70B50E46CE
:1023CC00114604461546FFF7E8FF18B92046FFF7FB
:1023DC00CDFF09E02A463146A560206800F0C0FC1C
:1023EC002268A3680021D154204670BD38B5002363
:1023FC00044603604360836003730D4639B108469D
:10240C0000F00FFD294602462046FFF7D7FF204675
:10241C0038BD884210B50B46044607D0096819B17F
:10242C009A68FFF7CBFF01E0FFF7A0FF204610BD35
:10243C0010B5044600230360436083600373FFF709
:10244C00E8FF204610BD38B505460C4641B108469C
:10245C0000F0E7FC214602462846FFF7AFFF01E0FB
:10246C00FFF784FF284638BD08B582680B4612B9C1
:10247C0019B9012008BD11B90368187802E0006889
:10248C0000F0AAFCB0FA80F0400908BD4FF6FF72CC
:10249C00034B0020187058809A80FFF7EDB900BFED
:1024AC00B8000020024B1A68024B1A60704700BF3C
:1024BC0004000020C000002070474174704708B52C
:1024CC00007CFFF799F920EAE07008BD08B5007CA4
:1024DC00FFF76AF920EAE07008BD08B5007CFFF749
:1024EC0073F930EA200028BF4FF0FF3008BD08B563
:1024FC00007CFFF761F930EA200028BF4FF0FF3075
:10250C0008BD007CFFF768B910B50446142100F033
:10251C00CCFA204610BD70B5457C04460E4625B954
:10252C00007CFFF769F9002805DD3146207CBDE809
:10253C007040FFF731B9284670BD000010B5044655
:10254C0008461146002262604FF47A72A260054A76
:10255C0020742260012262741A46FFF715F9204696
:10256C0010BD00BF68300A08007CFFF73DB90000C1
:10257C0038B50C4D296811F0010411D12846FDF72E
:10258C008AFD68B1084A2146084B0948FFF7D6FF77
:10259C002846FDF785FD074A0749054800F080FAF3
:1025AC00034838BD5C01002060010020D8000020E9
:1025BC00C40000206C000020C5240A084174704738
:1025CC00704708B50021007CFFF736F930EA20008F
:1025DC0028BF4FF0FF3008BD08B50121007CFFF784
:1025EC002BF930EA200028BF4FF0FF3008BD08B5AA
:1025FC00007CFFF719F920EAE07008BD08B5007CF3
:10260C00FFF70AF920EAE07008BD007CFFF724B957
:10261C0010B50446142100F048FA204610BD38B518
:10262C000446007C0D46FFF7FFF8002801DC607CB7
:10263C0028B12946207CFFF707F920EAE07038BD65
:10264C0010B50446002363604FF47A73A360054B06
:10265C00084623600123217463741146FFF7D4F8F4
:10266C00204610BD98300A0810B5044614220021EB
:10267C0000F081FB054B20466360054BE36040F2A4
:10268C00011323818123238210BD00BF6902002026
:10269C00E801002030B50E4D87B001A8FFF7E4FF2C
:1026AC00296811F0010410D12846FDF7F4FC60B143
:1026BC0001AA21460748FFF7C3FF2846FDF7F0FCA7
:1026CC00054A0649034800F0EBF9024807B030BD53
:1026DC00E40100206C0300206C000020CD250A08CA
:1026EC0010B504461422002100F045FB054B204692
:1026FC006360054BE36040F2011323818123238245
:10270C0010BD00BF1C0400208403002010B50E4C2B
:10271C0086B001A8FFF7E4FF2368DB0710D420463E
:10272C00FDF7B9FC60B101AA01210848FFF788FF49
:10273C002046FDF7B5FC064A0649044800F0B0F9FE
:10274C00024806B010BD00BF800300200804002022
:10275C006C000020CD250A08002211464068FFF7C6
:10276C00EFB8F0B5164689B011220F460446002189
:10277C0003A800F000FB304600F053FB0025009549
:10278C0081B27B6803AA3046FFF76EF820B1294668
:10279C002046FFF7CBFC03E003A92046FFF7B4FC6F
:1027AC00204609B0F0BD002211464068FFF7E8B89A
:1027BC00002211464068FFF7F3B800224068FFF78B
:1027CC00E7B8002281F001014068FFF7D1B800237F
:1027DC001A4619464068FFF7C3B800231A46194633
:1027EC004068FFF7B5B8002211464068FFF798B86B
:1027FC00002202214068FFF79BB800231A4640686C
:10280C00FFF786B8024B04225A60024A1A607047DE
:10281C0020050020C8300A0808B5144B33B1FFF767
:10282C0039FF03681B699847002816DC104B33B13D
:10283C00FFF79EFE03681B699847002810DC0D4BC0
:10284C000BB1AFF300800C4B7BB1FFF75FFF03685C
:10285C001B699847002806DC08BDAFF30080E5E74C
:10286C00AFF30080EBE7AFF3008008BD0000000081
:10287C0000000000000000000000000008B5FFF799
:10288C00CBFFFEF70FFF014B186008BD3005002091
:10289C000248034A0349121A00F062BA004002408F
:1028AC000440024090310A0807B5002300931A46F1
:1028BC006FF07701FFF702F803B05DF804FB00003E
:1028CC0007B543880A2B08D0502B09D1094B1B683C
:1028DC003BB103B05DF804EB1847FFF7E5FF06E0EA
:1028EC00002300931A466FF07701FEF7E7FF03B061
:1028FC005DF804FB2805002038B5104C104D2368FA
:10290C00AB42104B0CBF012200221A7002D0FFF711
:10291C00BFFF2560FEF7B6FE044600F035FA0A4B01
:10292C0013B12046AFF3008000210748FEF7E8FF03
:10293C00BDE8384000210548FEF7B6BF0040024014
:10294C001E1C279A2C05002000000000CD280A0828
:10295C0010B504460F48FFF7FFFC28B1A4F10D0396
:10296C00022B01D8002010BD00F040F8FFF798FBB7
:10297C0008B1012CF6D9FFF7FBFDFFF7F5FD18B1F7
:10298C00A4F11203012BEDD9172C8CBF00200120D0
:10299C0010BD00BF64050020172838B504460D464D
:1029AC000AD8FF2908D0FFF7D3FF28B129462046C3
:1029BC00BDE83840FEF786BE38BD38B504460D4636
:1029CC00FEF788FEFF2810D0062804D84D2323FAE2
:1029DC0000F0C30709D42046FFF7BAFF28B12946F7
:1029EC002046BDE83840FEF77DBE38BD38B50B4DEE
:1029FC00296811F001040FD12846FDF74CFB58B1A2
:102A0C0021460748FFF73AFB2846FDF749FB054AE4
:102A1C000549034800F044F8014838BD340500204E
:102A2C00380500206C00002031200A0813B5084C32
:102A3C0000231A46194600932046FFF78DFB2046CB
:102A4C00044A054902B0BDE8104000F029B800BFA7
:102A5C004C0500206C000020B5200A0870B50C4C09
:102A6C000C4E0D4D00212046FFF762FC20460B4C0E
:102A7C003246294600F014F801212046FFF758FC95
:102A8C00324629462046BDE8704000F009B800BF28
:102A9C00640500206C0000202D230A08740500201A
:102AAC000B460146184600F04DB9FDF7F2BA08B5D1
:102ABC00FEF796FF244B1A68D0075CBF01221A6000
:102ACC00224B1A68D1075CBF01221A60204B1A688E
:102ADC00D2075CBF01221A601E4B1A68D0075CBF7C
:102AEC0001221A601C4B1A68D1075CBF01221A60C4
:102AFC001A4B1A68D2075CBF01221A60184B1A686D
:102B0C00D0075CBF01221A60164B1A68D1075CBF54
:102B1C0001221A60144B1A68D2075CBF01221A609A
:102B2C00124B1A68D0075CBF01221A60104B1A684E
:102B3C00D1075CBF01221A600E4B1A68D2075CBF2A
:102B4C0001221A60704700BFB0050020AC050020C0
:102B5C00A8050020A4050020A00500209C0500204D
:102B6C009805002094050020900500208C0500207D
:102B7C008805002084050020184B1A68D1075CBF1B
:102B8C0001221A60164B1A68D2075CBF01221A6028
:102B9C00144B1A68D0075CBF01221A60124B1A68DA
:102BAC00D1075CBF01221A60104B1A68D2075CBFB8
:102BBC0001221A600E4B1A68D0075CBF01221A6002
:102BCC000C4B1A68D1075CBF01221A600A4B1A68B9
:102BDC00D2075CBF01221A60704700BFD0050020ED
:102BEC00CC050020C8050020C4050020C00500202D
:102BFC00BC050020B8050020B4050020184B1A684D
:102C0C00D1075CBF01221A60164B1A68D2075CBF51
:102C1C0001221A60144B1A68D0075CBF01221A609B
:102C2C00124B1A68D1075CBF01221A60104B1A684C
:102C3C00D2075CBF01221A600E4B1A68D0075CBF2A
:102C4C0001221A600C4B1A68D1075CBF01221A6072
:102C5C000A4B1A68D2075CBF01221A60704700BF8A
:102C6C00F0050020EC050020E8050020E40500201C
:102C7C00E0050020DC050020D8050020D40500204C
:102C8C00244B1A68D0075CBF01221A60224B1A68C9
:102C9C00D1075CBF01221A60204B1A68D2075CBFB7
:102CAC0001221A601E4B1A68D0075CBF01221A6001
:102CBC001C4B1A68D1075CBF01221A601A4B1A68A8
:102CCC00D2075CBF01221A60184B1A68D0075CBF90
:102CDC0001221A60164B1A68D1075CBF01221A60D8
:102CEC00144B1A68D2075CBF01221A60124B1A6887
:102CFC00D0075CBF01221A60104B1A68D1075CBF69
:102D0C0001221A600E4B1A68D2075CBF01221A60AE
:102D1C00704700BF200600201C060020180600206B
:102D2C0014060020100600200C06002008060020C7
:102D3C000406002000060020FC050020F8050020F9
:102D4C00F405002010B5054C13462CB10A4601467B
:102D5C000220AFF3008010BD204610BD0000000023
:102D6C0010B5431E0A44914204D011F8014B03F8EC
:102D7C00014FF8E710BD03460244934202D003F81A
:102D8C00011BFAE77047000038B5124B05461C686A
:102D9C00A36BD3B91820FEF70BFE43F20E33A063DE
:102DAC0003804AF6CD33438041F2342383804EF2C4
:102DBC006D63C3804DF6EC630381052343810B23C4
:102DCC00838101220023C0E90423A36B00221D612F
:102DDC005A6138BD6800002010F8012B11F8013B36
:102DEC00012A28BF9A42F7D0D01A7047024B0146ED
:102DFC00186800F003B800BF6800002070B50646E4
:102E0C0008460C4600F00DF8451C29463046FEF7E6
:102E1C00EFFD064618B12A462146FFF7A1FF3046C2
:102E2C0070BD034613F8012B002AFBD1181A013888
:102E3C00704700001D000A085D000A0889000A0896
:102E4C008D000A0800000000496E73696465206FEC
:102E5C006E48616E646C6572006F6E006F66660022
:102E6C004D61737465724F6E0063616C6C497400D4
:102E7C004D61737465724F6666004C65644F6E00ED
:102E8C004C65644F6666004D6173746572506F7764
:102E9C00657200002C01000018000000F401000015
:102EAC002C01000050000000000000000000000099
:102EBC00351A0A083B1A0A087F1A0A08491A0A081E
:102ECC00371A0A08000000000000000031200A0830
:102EDC007B200A0853200A0833200A085B200A08C2
:102EEC0063200A086B200A0873200A0800000000FF
:102EFC0000000000C5200A08B5200A08B7200A08FF
:102F0C00626175640053657269616C00555342537C
:102F1C00657269616C310074797065007061726101
:102F2C006D00636D6400696400686E640073747294
:102F3C006D0066696C74006C766C00616464486149
:102F4C006E646C65720072656D6F766548616E6457
:102F5C006C657200656E756D48616E646C6572733C
:102F6C00004A534F4E53747265616D4C6F674861E4
:102F7C006E646C65720061707000253031307520A4
:102F8C00005D20002564002C200028293A20002018
:102F9C005B00636F6465203D2000256900646574E7
:102FAC0061696C73203D20000D0A006C6E00666E2A
:102FBC0000636F64650064657461696C006E6F6EAC
:102FCC006500747261636500696E666F007761728B
:102FDC006E006572726F720070616E696300616C75
:102FEC006C00000000000000000000008D210A08A9
:102FFC0097210A08A1210A08AB210A08B5210A0861
:10300C00C1210A08CD210A08D9210A08E1210A08A0
:10301C00EB210A08F5210A0800000000000000005E
:10302C002D230A082F230A085A00252B3033643A23
:10303C00253032750025592D256D2D2564542548D4
:10304C003A254D3A2553257A0061736374696D6591
:10305C00000000000000000000000000C5240A0869
:10306C0015250A0823250A0859220A08D9240A0812
:10307C00FB240A08E7240A080F250A08C7240A08B3
:10308C00CB240A080000000000000000CD250A082F
:10309C001D260A082B260A0859220A0809260A089E
:1030AC00CF250A08E5250A0817260A08FB250A0871
:1030BC00C9250A08000000000000000007280A08C3
:1030CC00FD270A08F3270A0865270A08E7270A08D4
:1030DC00DB270A08CF270A08C7270A08BD270A08D2
:1030EC00B3270A086F270A08000000000000000040
:1030FC0000000000000000000000000000000000C4
:10310C0000000000000000000000000000000000B3
:10311C0000000000000000000000000000000000A3
:10312C000000000000000000000000000000000093
:10313C000000000000000000000000000000000083
:10314C0000000000000000004300000025030A08F6
:10315C006D160A087D210A0845220A0811230A085F
:10316C0099240A08B1240A0811280A08392A0A08DD
:10317C00692A0A08C12A0A08852B0A08092C0A0898
:04318C008D2C0A0874
:04319000000000003B
:103194000100000055300A0800000000F4300A085D
:1031A40014310A0834310A0800000000000000004D
:1031B400000000000000000054310A080000000074
:1031C40000000000000000000000000000000000FB
:1031D40000000000000000000000000000000000EB
:1031E40000000000000000000000000000000000DB
:0C31F400000000000000000008000020A7
:10320000FFFFFFFF00000102030405060708090A8B
:103210000B0C0D0E0F101112131415161718191A86
:083220001B1C1D1E1F202800CD
:04322800785634128E
:04000005080A001CC9
:00000001FF
